{
  "_format": "hh-sol-artifact-1",
  "contractName": "FundMe",
  "sourceName": "contracts/FundMe.sol",
  "abi": [
    {
      "inputs": [
        {
          "internalType": "address",
          "name": "priceFeedAddress",
          "type": "address"
        }
      ],
      "stateMutability": "nonpayable",
      "type": "constructor"
    },
    {
      "inputs": [],
      "name": "FundMe__NotOwner",
      "type": "error"
    },
    {
      "stateMutability": "payable",
      "type": "fallback"
    },
    {
      "inputs": [],
      "name": "MINIMUM_USD",
      "outputs": [
        {
          "internalType": "uint256",
          "name": "",
          "type": "uint256"
        }
      ],
      "stateMutability": "view",
      "type": "function"
    },
    {
      "inputs": [
        {
          "internalType": "address",
          "name": "",
          "type": "address"
        }
      ],
      "name": "addressToAmoutFunded",
      "outputs": [
        {
          "internalType": "uint256",
          "name": "",
          "type": "uint256"
        }
      ],
      "stateMutability": "view",
      "type": "function"
    },
    {
      "inputs": [],
      "name": "fund",
      "outputs": [],
      "stateMutability": "payable",
      "type": "function"
    },
    {
      "inputs": [
        {
          "internalType": "uint256",
          "name": "",
          "type": "uint256"
        }
      ],
      "name": "funders",
      "outputs": [
        {
          "internalType": "address",
          "name": "",
          "type": "address"
        }
      ],
      "stateMutability": "view",
      "type": "function"
    },
    {
      "inputs": [],
      "name": "i_owner",
      "outputs": [
        {
          "internalType": "address",
          "name": "",
          "type": "address"
        }
      ],
      "stateMutability": "view",
      "type": "function"
    },
    {
      "inputs": [],
      "name": "priceFeed",
      "outputs": [
        {
          "internalType": "contract AggregatorV3Interface",
          "name": "",
          "type": "address"
        }
      ],
      "stateMutability": "view",
      "type": "function"
    },
    {
      "inputs": [],
      "name": "withdraw",
      "outputs": [],
      "stateMutability": "nonpayable",
      "type": "function"
    },
    {
      "stateMutability": "payable",
      "type": "receive"
    }
  ],
  "bytecode": "0x60a060405234801561001057600080fd5b50604051610f72380380610f7283398181016040528101906100329190610113565b3373ffffffffffffffffffffffffffffffffffffffff1660808173ffffffffffffffffffffffffffffffffffffffff1660601b8152505080600260006101000a81548173ffffffffffffffffffffffffffffffffffffffff021916908373ffffffffffffffffffffffffffffffffffffffff16021790555050610140565b600080fd5b600073ffffffffffffffffffffffffffffffffffffffff82169050919050565b60006100e0826100b5565b9050919050565b6100f0816100d5565b81146100fb57600080fd5b50565b60008151905061010d816100e7565b92915050565b600060208284031215610129576101286100b0565b5b6000610137848285016100fe565b91505092915050565b60805160601c610e0d610165600039600081816102d4015261055f0152610e0d6000f3fe6080604052600436106100745760003560e01c8063b60d42881161004e578063b60d4288146100fa578063cb78e6e114610104578063dba6335f14610141578063dc0d3dff1461016c57610083565b80633ccfd60b1461008d5780636b69a592146100a4578063741bef1a146100cf57610083565b36610083576100816101a9565b005b61008b6101a9565b005b34801561009957600080fd5b506100a26102d2565b005b3480156100b057600080fd5b506100b9610512565b6040516100c69190610751565b60405180910390f35b3480156100db57600080fd5b506100e461051f565b6040516100f191906107eb565b60405180910390f35b6101026101a9565b005b34801561011057600080fd5b5061012b60048036038101906101269190610849565b610545565b6040516101389190610751565b60405180910390f35b34801561014d57600080fd5b5061015661055d565b6040516101639190610885565b60405180910390f35b34801561017857600080fd5b50610193600480360381019061018e91906108cc565b610581565b6040516101a09190610885565b60405180910390f35b6802b5e3af16b18800006101e8600260009054906101000a900473ffffffffffffffffffffffffffffffffffffffff16346105c090919063ffffffff16565b1015610229576040517f08c379a000000000000000000000000000000000000000000000000000000000815260040161022090610956565b60405180910390fd5b6000339080600181540180825580915050600190039060005260206000200160009091909190916101000a81548173ffffffffffffffffffffffffffffffffffffffff021916908373ffffffffffffffffffffffffffffffffffffffff16021790555034600160003373ffffffffffffffffffffffffffffffffffffffff1673ffffffffffffffffffffffffffffffffffffffff16815260200190815260200160002081905550565b7f000000000000000000000000000000000000000000000000000000000000000073ffffffffffffffffffffffffffffffffffffffff163373ffffffffffffffffffffffffffffffffffffffff1614610357576040517f579610db00000000000000000000000000000000000000000000000000000000815260040160405180910390fd5b60005b60008054905081101561040257600080828154811061037c5761037b610976565b5b9060005260206000200160009054906101000a900473ffffffffffffffffffffffffffffffffffffffff1690506000600160008373ffffffffffffffffffffffffffffffffffffffff1673ffffffffffffffffffffffffffffffffffffffff168152602001908152602001600020819055505080806103fa906109d4565b91505061035a565b50600067ffffffffffffffff81111561041e5761041d610a1d565b5b60405190808252806020026020018201604052801561044c5781602001602082028036833780820191505090505b5060009080519060200190610462929190610691565b5060003373ffffffffffffffffffffffffffffffffffffffff164760405161048990610a7d565b60006040518083038185875af1925050503d80600081146104c6576040519150601f19603f3d011682016040523d82523d6000602084013e6104cb565b606091505b505090508061050f576040517f08c379a000000000000000000000000000000000000000000000000000000000815260040161050690610ade565b60405180910390fd5b50565b6802b5e3af16b188000081565b600260009054906101000a900473ffffffffffffffffffffffffffffffffffffffff1681565b60016020528060005260406000206000915090505481565b7f000000000000000000000000000000000000000000000000000000000000000081565b6000818154811061059157600080fd5b906000526020600020016000915054906101000a900473ffffffffffffffffffffffffffffffffffffffff1681565b6000670de0b6b3a76400006105d4836105f1565b846105df9190610afe565b6105e99190610b87565b905092915050565b6000808273ffffffffffffffffffffffffffffffffffffffff1663feaf968c6040518163ffffffff1660e01b815260040160a06040518083038186803b15801561063a57600080fd5b505afa15801561064e573d6000803e3d6000fd5b505050506040513d601f19601f820116820180604052508101906106729190610c45565b5050509150506402540be400816106899190610cc0565b915050919050565b82805482825590600052602060002090810192821561070a579160200282015b828111156107095782518260006101000a81548173ffffffffffffffffffffffffffffffffffffffff021916908373ffffffffffffffffffffffffffffffffffffffff160217905550916020019190600101906106b1565b5b509050610717919061071b565b5090565b5b8082111561073457600081600090555060010161071c565b5090565b6000819050919050565b61074b81610738565b82525050565b60006020820190506107666000830184610742565b92915050565b600073ffffffffffffffffffffffffffffffffffffffff82169050919050565b6000819050919050565b60006107b16107ac6107a78461076c565b61078c565b61076c565b9050919050565b60006107c382610796565b9050919050565b60006107d5826107b8565b9050919050565b6107e5816107ca565b82525050565b600060208201905061080060008301846107dc565b92915050565b600080fd5b60006108168261076c565b9050919050565b6108268161080b565b811461083157600080fd5b50565b6000813590506108438161081d565b92915050565b60006020828403121561085f5761085e610806565b5b600061086d84828501610834565b91505092915050565b61087f8161080b565b82525050565b600060208201905061089a6000830184610876565b92915050565b6108a981610738565b81146108b457600080fd5b50565b6000813590506108c6816108a0565b92915050565b6000602082840312156108e2576108e1610806565b5b60006108f0848285016108b7565b91505092915050565b600082825260208201905092915050565b7f4469646e27742073656e6420656e6f7567682045544800000000000000000000600082015250565b60006109406016836108f9565b915061094b8261090a565b602082019050919050565b6000602082019050818103600083015261096f81610933565b9050919050565b7f4e487b7100000000000000000000000000000000000000000000000000000000600052603260045260246000fd5b7f4e487b7100000000000000000000000000000000000000000000000000000000600052601160045260246000fd5b60006109df82610738565b91507fffffffffffffffffffffffffffffffffffffffffffffffffffffffffffffffff821415610a1257610a116109a5565b5b600182019050919050565b7f4e487b7100000000000000000000000000000000000000000000000000000000600052604160045260246000fd5b600081905092915050565b50565b6000610a67600083610a4c565b9150610a7282610a57565b600082019050919050565b6000610a8882610a5a565b9150819050919050565b7f43616c6c204661696c6564000000000000000000000000000000000000000000600082015250565b6000610ac8600b836108f9565b9150610ad382610a92565b602082019050919050565b60006020820190508181036000830152610af781610abb565b9050919050565b6000610b0982610738565b9150610b1483610738565b9250817fffffffffffffffffffffffffffffffffffffffffffffffffffffffffffffffff0483118215151615610b4d57610b4c6109a5565b5b828202905092915050565b7f4e487b7100000000000000000000000000000000000000000000000000000000600052601260045260246000fd5b6000610b9282610738565b9150610b9d83610738565b925082610bad57610bac610b58565b5b828204905092915050565b600069ffffffffffffffffffff82169050919050565b610bd781610bb8565b8114610be257600080fd5b50565b600081519050610bf481610bce565b92915050565b6000819050919050565b610c0d81610bfa565b8114610c1857600080fd5b50565b600081519050610c2a81610c04565b92915050565b600081519050610c3f816108a0565b92915050565b600080600080600060a08688031215610c6157610c60610806565b5b6000610c6f88828901610be5565b9550506020610c8088828901610c1b565b9450506040610c9188828901610c30565b9350506060610ca288828901610c30565b9250506080610cb388828901610be5565b9150509295509295909350565b6000610ccb82610bfa565b9150610cd683610bfa565b9250827f7fffffffffffffffffffffffffffffffffffffffffffffffffffffffffffffff0482116000841360008413161615610d1557610d146109a5565b5b817f80000000000000000000000000000000000000000000000000000000000000000583126000841260008413161615610d5257610d516109a5565b5b827f80000000000000000000000000000000000000000000000000000000000000000582126000841360008412161615610d8f57610d8e6109a5565b5b827f7fffffffffffffffffffffffffffffffffffffffffffffffffffffffffffffff0582126000841260008412161615610dcc57610dcb6109a5565b5b82820290509291505056fea26469706673582212209f9b3d39a350156d41b52b4192162ef0b0e636c5d06ba42d84fdf011e0b992f164736f6c63430008080033",
  "linkReferences": {},
  "deployedLinkReferences": {}
}