{
  "_format": "hh-sol-artifact-1",
  "contractName": "FundMe",
  "sourceName": "contracts/FundMe.sol",
  "abi": [
    {
      "inputs": [],
      "stateMutability": "nonpayable",
      "type": "constructor"
    },
    {
      "inputs": [],
      "name": "NotOwner",
      "type": "error"
    },
    {
      "stateMutability": "payable",
      "type": "fallback"
    },
    {
      "inputs": [],
      "name": "MINIMUM_USD",
      "outputs": [
        {
          "internalType": "uint256",
          "name": "",
          "type": "uint256"
        }
      ],
      "stateMutability": "view",
      "type": "function"
    },
    {
      "inputs": [
        {
          "internalType": "address",
          "name": "",
          "type": "address"
        }
      ],
      "name": "adressToAmoutFunded",
      "outputs": [
        {
          "internalType": "uint256",
          "name": "",
          "type": "uint256"
        }
      ],
      "stateMutability": "view",
      "type": "function"
    },
    {
      "inputs": [],
      "name": "fund",
      "outputs": [],
      "stateMutability": "payable",
      "type": "function"
    },
    {
      "inputs": [
        {
          "internalType": "uint256",
          "name": "",
          "type": "uint256"
        }
      ],
      "name": "funders",
      "outputs": [
        {
          "internalType": "address",
          "name": "",
          "type": "address"
        }
      ],
      "stateMutability": "view",
      "type": "function"
    },
    {
      "inputs": [],
      "name": "i_owner",
      "outputs": [
        {
          "internalType": "address",
          "name": "",
          "type": "address"
        }
      ],
      "stateMutability": "view",
      "type": "function"
    },
    {
      "inputs": [],
      "name": "withdraw",
      "outputs": [],
      "stateMutability": "nonpayable",
      "type": "function"
    },
    {
      "stateMutability": "payable",
      "type": "receive"
    }
  ],
  "bytecode": "0x60a060405234801561001057600080fd5b503373ffffffffffffffffffffffffffffffffffffffff1660808173ffffffffffffffffffffffffffffffffffffffff1660601b8152505060805160601c610d1161006d6000396000818161026201526104af0152610d116000f3fe6080604052600436106100595760003560e01c80633ccfd60b146100725780636b69a59214610089578063b60d4288146100b4578063dba6335f146100be578063dc0d3dff146100e9578063f9d242e71461012657610068565b3661006857610066610163565b005b610070610163565b005b34801561007e57600080fd5b50610087610260565b005b34801561009557600080fd5b5061009e6104a0565b6040516100ab91906106cf565b60405180910390f35b6100bc610163565b005b3480156100ca57600080fd5b506100d36104ad565b6040516100e0919061072b565b60405180910390f35b3480156100f557600080fd5b50610110600480360381019061010b9190610777565b6104d1565b60405161011d919061072b565b60405180910390f35b34801561013257600080fd5b5061014d600480360381019061014891906107d0565b610510565b60405161015a91906106cf565b60405180910390f35b6802b5e3af16b188000061017634610528565b10156101b7576040517f08c379a00000000000000000000000000000000000000000000000000000000081526004016101ae9061085a565b60405180910390fd5b6000339080600181540180825580915050600190039060005260206000200160009091909190916101000a81548173ffffffffffffffffffffffffffffffffffffffff021916908373ffffffffffffffffffffffffffffffffffffffff16021790555034600160003373ffffffffffffffffffffffffffffffffffffffff1673ffffffffffffffffffffffffffffffffffffffff16815260200190815260200160002081905550565b7f000000000000000000000000000000000000000000000000000000000000000073ffffffffffffffffffffffffffffffffffffffff163373ffffffffffffffffffffffffffffffffffffffff16146102e5576040517f30cd747100000000000000000000000000000000000000000000000000000000815260040160405180910390fd5b60005b60008054905081101561039057600080828154811061030a5761030961087a565b5b9060005260206000200160009054906101000a900473ffffffffffffffffffffffffffffffffffffffff1690506000600160008373ffffffffffffffffffffffffffffffffffffffff1673ffffffffffffffffffffffffffffffffffffffff16815260200190815260200160002081905550508080610388906108d8565b9150506102e8565b50600067ffffffffffffffff8111156103ac576103ab610921565b5b6040519080825280602002602001820160405280156103da5781602001602082028036833780820191505090505b50600090805190602001906103f092919061060f565b5060003373ffffffffffffffffffffffffffffffffffffffff164760405161041790610981565b60006040518083038185875af1925050503d8060008114610454576040519150601f19603f3d011682016040523d82523d6000602084013e610459565b606091505b505090508061049d576040517f08c379a0000000000000000000000000000000000000000000000000000000008152600401610494906109e2565b60405180910390fd5b50565b6802b5e3af16b188000081565b7f000000000000000000000000000000000000000000000000000000000000000081565b600081815481106104e157600080fd5b906000526020600020016000915054906101000a900473ffffffffffffffffffffffffffffffffffffffff1681565b60016020528060005260406000206000915090505481565b6000670de0b6b3a764000061053b610557565b836105469190610a02565b6105509190610a8b565b9050919050565b600080738a753747a1fa494ec906ce90e9f37563a8af630e905060008173ffffffffffffffffffffffffffffffffffffffff1663feaf968c6040518163ffffffff1660e01b815260040160a06040518083038186803b1580156105b957600080fd5b505afa1580156105cd573d6000803e3d6000fd5b505050506040513d601f19601f820116820180604052508101906105f19190610b49565b5050509150506402540be400816106089190610bc4565b9250505090565b828054828255906000526020600020908101928215610688579160200282015b828111156106875782518260006101000a81548173ffffffffffffffffffffffffffffffffffffffff021916908373ffffffffffffffffffffffffffffffffffffffff1602179055509160200191906001019061062f565b5b5090506106959190610699565b5090565b5b808211156106b257600081600090555060010161069a565b5090565b6000819050919050565b6106c9816106b6565b82525050565b60006020820190506106e460008301846106c0565b92915050565b600073ffffffffffffffffffffffffffffffffffffffff82169050919050565b6000610715826106ea565b9050919050565b6107258161070a565b82525050565b6000602082019050610740600083018461071c565b92915050565b600080fd5b610754816106b6565b811461075f57600080fd5b50565b6000813590506107718161074b565b92915050565b60006020828403121561078d5761078c610746565b5b600061079b84828501610762565b91505092915050565b6107ad8161070a565b81146107b857600080fd5b50565b6000813590506107ca816107a4565b92915050565b6000602082840312156107e6576107e5610746565b5b60006107f4848285016107bb565b91505092915050565b600082825260208201905092915050565b7f4469646e27742073656e6420656e6f7567682045544800000000000000000000600082015250565b60006108446016836107fd565b915061084f8261080e565b602082019050919050565b6000602082019050818103600083015261087381610837565b9050919050565b7f4e487b7100000000000000000000000000000000000000000000000000000000600052603260045260246000fd5b7f4e487b7100000000000000000000000000000000000000000000000000000000600052601160045260246000fd5b60006108e3826106b6565b91507fffffffffffffffffffffffffffffffffffffffffffffffffffffffffffffffff821415610916576109156108a9565b5b600182019050919050565b7f4e487b7100000000000000000000000000000000000000000000000000000000600052604160045260246000fd5b600081905092915050565b50565b600061096b600083610950565b91506109768261095b565b600082019050919050565b600061098c8261095e565b9150819050919050565b7f43616c6c204661696c6564000000000000000000000000000000000000000000600082015250565b60006109cc600b836107fd565b91506109d782610996565b602082019050919050565b600060208201905081810360008301526109fb816109bf565b9050919050565b6000610a0d826106b6565b9150610a18836106b6565b9250817fffffffffffffffffffffffffffffffffffffffffffffffffffffffffffffffff0483118215151615610a5157610a506108a9565b5b828202905092915050565b7f4e487b7100000000000000000000000000000000000000000000000000000000600052601260045260246000fd5b6000610a96826106b6565b9150610aa1836106b6565b925082610ab157610ab0610a5c565b5b828204905092915050565b600069ffffffffffffffffffff82169050919050565b610adb81610abc565b8114610ae657600080fd5b50565b600081519050610af881610ad2565b92915050565b6000819050919050565b610b1181610afe565b8114610b1c57600080fd5b50565b600081519050610b2e81610b08565b92915050565b600081519050610b438161074b565b92915050565b600080600080600060a08688031215610b6557610b64610746565b5b6000610b7388828901610ae9565b9550506020610b8488828901610b1f565b9450506040610b9588828901610b34565b9350506060610ba688828901610b34565b9250506080610bb788828901610ae9565b9150509295509295909350565b6000610bcf82610afe565b9150610bda83610afe565b9250827f7fffffffffffffffffffffffffffffffffffffffffffffffffffffffffffffff0482116000841360008413161615610c1957610c186108a9565b5b817f80000000000000000000000000000000000000000000000000000000000000000583126000841260008413161615610c5657610c556108a9565b5b827f80000000000000000000000000000000000000000000000000000000000000000582126000841360008412161615610c9357610c926108a9565b5b827f7fffffffffffffffffffffffffffffffffffffffffffffffffffffffffffffff0582126000841260008412161615610cd057610ccf6108a9565b5b82820290509291505056fea2646970667358221220493cbd67ac84079e27a289fddd624bfc5ff99b390549cf458bcddbfa0484baa364736f6c63430008080033",
  "linkReferences": {},
  "deployedLinkReferences": {}
}